:020000040800F2
:10000000D821002001010008AB150008CB01000831
:10001000A9150008ED030008DD1800080000000025
:10002000000000000000000000000000CD150008E6
:10003000EF0300080000000053010008CF1500087E
:100040001B0100081B0100081B0100081B01000820
:100050001B0100081B0100081B0100081B01000810
:100060001B0100081B0100081B0100081B01000800
:100070001B0100081B0100081B0100081B010008F0
:100080001B0100081B0100081B0100081B010008E0
:100090001B0100081B0100081B0100081B010008D0
:1000A0001B0100081B0100081B0100081B010008C0
:1000B0001B0100081B0100081B0100081B010008B0
:1000C0001B0100081B0100081B0100081B010008A0
:1000D0001B010008C51800081B0100081B010008CF
:1000E0001B0100081B0100081B010008DFF80CD0F1
:1000F00000F004F90048004721030008D82100203F
:100100000648804706480047FEE7FEE7FEE7FEE7B1
:10011000FEE7FEE7FEE7FEE7FEE7FEE7A9160008BA
:10012000ED000008EFF3108072B6704780F310887E
:100130007047334A1368012B04D04FF0010313605A
:10014000304A1060304A116030484FF080510160F1
:100150007047EFF3108272B62948016891B14FF0F1
:10016000000101602748016829B1EFF3098121E905
:10017000F00F00680160244909680968B1E8F00FD0
:1001800081F3098882F310884EF0040E70471E49EF
:1001900008601C494FF00000086019494FF0010049
:1001A00008601B484FF47F01D0F8002041EA0201AB
:1001B000016016484FF080510160164800680068E1
:1001C00080F3088861B662B670471EF0040F0CBF5A
:1001D000EFF30880EFF3098020E9F00F40F804ED19
:1001E0001EF0040F0CBF80F3088880F3098800B567
:1001F00003F016F85DF804EB4EF0040E70470000B3
:10020000C4000020BC000020C000002004ED00E07D
:1002100020ED00E008ED00E040EA01039B0703D079
:1002200009E008C9121F08C0042AFAD203E011F835
:10023000013B00F8013B521EF9D27047D2B201E0F7
:1002400000F8012B491EFBD270470022F6E710B5DB
:1002500013460A4604461946FFF7F0FF204610BD34
:10026000421E12F8013F002BFBD111F8013B02F8AE
:10027000013B002BF9D1704710B5044604E00B7820
:1002800000F8013B03B1491C521EF8D2204610BDB4
:10029000421C10F8011B0029FBD1801A704703464D
:1002A00011F8012B00F8012B002AF9D118467047EC
:1002B00030B505460020034600E05B1C934205D2A2
:1002C000EC5CC85C201A01D1002CF6D130BD30B5F1
:1002D0000B46014600202022012409E021FA02F504
:1002E0009D4205D303FA02F5491B04FA02F528449E
:1002F000151EA2F10102F1DC30BD0000064C074DD5
:1003000006E0E06840F0010394E8070098471034E5
:10031000AC42F6D3FFF7EEFE504E0008704E0008D8
:1003200010B5FFF7FFFE04F0E3F9002010BD000058
:1003300070B5044600688168C943C9071CD181684B
:1003400021F00101816000F091FB05460FE000BF44
:1003500000F08CFB401B022809D9A06A40F0100075
:10036000A062E06A40F00100E062012070BD2068F8
:100370008068C043C007EBD0002070BDF8B50026F0
:100380000446009600688168C943C90728D081687F
:1003900041F001018160134813490068B0FBF1F09E
:1003A00000E0401E00900028FBD100F05FFB0546F6
:1003B00011E000BF00F05AFB401B02280BD9A06AD5
:1003C00040F01000A062E06A40F00100E06284F8B2
:1003D00024600120F8BD20688068C043C007E9D1CF
:1003E0000020F8BD1C00002040420F00FEE77047CF
:1003F00070470000F8B50024009490F824202546AA
:10040000012A12D0012280F824204A681F23072ADB
:100410000DD20668776B521E02EB820293409F4317
:100420000B6893401F43776319E00220F8BD06680C
:100430000D2A0AD2376BD21F02EB820293409F43F0
:100440000B6893401F43376309E0F76A0D3A02EBEC
:10045000820293409F430B6893401F43F7620A68F0
:10046000072306680A2A0AD3F7680A3A02EB42020F
:1004700093409F438B6893401F43F76008E03769C0
:1004800002EB420293409F438B6893401F433761C6
:100490000A68102A01D0112A20D1124B02689A4210
:1004A00017D193681B0219D4936843F40003936037
:1004B0000968102912D10C490C4A0968B1FBF2F104
:1004C00001EB8101490000E0491E00910029FBD1A8
:1004D00004E0816A41F020018162012480F8245007
:1004E0002046F8BD002401401C00002040420F00BF
:1004F0000068C06C704700002DE9F0414FF0000724
:1005000004003D467ED0A06A002628B9E66284F841
:100510002460204600F07EF82046FFF709FFA16A1C
:10052000C90600D420B1A06A40F01000A06269E0C2
:10053000A16A21F4885141F00201A1626268E16977
:10054000E3680A4347EA43010A43A1684FF480770E
:10055000B94209D0012907D05FF00001D4F814C0D6
:10056000BCF1010F02D00AE03946F7E7F3B1A36A04
:1005700043F02003A362E36A43F00103E3622368CC
:10058000D3F804C02CF4694C4CEA010CC3F804C045
:1005900021688B68DFF870C003EA0C0313438B609B
:1005A000A168B9420BD0012909D00CE0DFF85CC08A
:1005B000A3690CEB43330B4343F40061DFE7218A6B
:1005C0000D05A5F580152168CB6A23F470032B4334
:1005D000CB62216889680E4B1940914208D1E662CE
:1005E000A16A21F0020141F00101A162BDE8F081A0
:1005F000A06A20F0020040F01000A062E06A40F023
:100600000100E0620120F1E7FDF7E1FF00E0FFFFFC
:10061000FE0E1FFF10B586B00021009101910291DE
:10062000039100681549884226D11548816941F433
:1006300000718161816901F400710491816941F067
:1006400004018161816901F004010491816941F033
:10065000080181618069032400F008000490FF20F4
:10066000CDE900046946074800F022F90094694684
:100670000548019400F01CF906B010BD00240140AB
:100680000010024000080140000C01402DE9F84331
:1006900000260D460446009600F0E8F980462068E2
:1006A0008168C90508D5A06A40F02000A06284F8DE
:1006B00024600120BDE8F8834168C90503D4C06AFD
:1006C00010F4700F26D0022000F064FA384909684F
:1006D000B1FBF0F72068036936490B424FEA61012C
:1006E0004FEAA1121BD1C3684FEA611C13EA0C0F39
:1006F00015D103690B4221D1C06810421ED11420CC
:100700001FE0681C06D045B300F0B0F9A0EB08006C
:10071000A84222D8206800688007F2D52AE0036941
:100720000B4202D1C168114206D0026922490A4235
:1007300006D1C068084203D1542002E0292000E01D
:10074000FC204743009813E0681C0ED02DB100F048
:100750008DF9A0EB0800A84207D9A06A40F0040078
:10076000A06284F824600320A4E70098401C009055
:10077000B842E9D321686FF012000860A06A40F423
:100780000070A06220688068C0F3424007280CD146
:10079000E06850B9A06A20F48070A062A06AC0042A
:1007A00003D4A06A40F00100A062002082E70000AC
:1007B0001C000020244992244992240070B504466C
:1007C00090F8240001280DD0012084F82400204650
:1007D000FFF7D4FD02004FF0000005D084F824009C
:1007E000104670BD022070BDA16A40F201239943FA
:1007F00041F48071A1621F4D23681F49AB4218D19B
:100800000E6816F4702F14D0A66A46F48016A662FD
:100810000E68760505D5A66A26F4005646F480567D
:10082000A662A66AF6040AD5E66A26F00606E6621D
:1008300006E0A66A26F48016A6625E68E9E7E06232
:1008400084F824006FF00200186020688368C3F306
:100850004243072B05D1A84208D1096811F4702F33
:1008600004D0816841F480118160B9E7816841F466
:10087000A001F9E7002801400424014010B5044616
:1008800090F82400012807D0012084F82400204695
:10089000FFF74EFD10B107E0022010BDA16A21F460
:1008A000885141F00101A162002184F8241010BD9B
:1008B0002DE9F84FDFF890A100220AF1040B14464D
:1008C00001274FF00F090BF1040E00BF0B6807FA68
:1008D00004F52B40AB4274D1DFF870C14E68A6EB33
:1008E0000C0866452BD00DDC032E34D005DC36B366
:1008F000012E19D0022E2FD11BE0112E16D0122E50
:100900002AD119E0B8F5881F19D006DCB8F5803F68
:1009100015D0B8F5801F1FD111E0B8F5001F0ED01B
:10092000B8F5041F18D10AE0CA6815E0CA68121D9C
:1009300012E0CA6808320FE0CA680C320CE08A681C
:100940002AB1012A4FF0080203D0456104E00422D5
:1009500002E0056100E00022FF2B01D8064601E01D
:1009600000F104064FEA840501D9A5F12005D6F867
:1009700000C009FA05F82CEA080C02FA05F54CEA61
:10098000050CC6F800C04D68ED0057D5304DAE6976
:1009900046F00106AE61AD6924F0030605F00105DD
:1009A00000952C4D06EB050CDCF80850A6074FEA25
:1009B000167809FA08F6B543274EB04202D1002650
:1009C00010E03BE0254EB04201D101260AE0244E62
:1009D000B04201D1022605E0224EB04201D10326E9
:1009E00000E0042606FA08F62E43CCF808604D68AD
:1009F000DAF80060ED03554601D51E4300E09E4342
:100A00002E604D68DBF80060AD035D4601D51E43E6
:100A100000E09E432E604D68DEF80060ED027546F2
:100A200001D51E4300E09E432E604D68AD020E4D81
:100A30002E6801D51E4300E09E432E60641C102CDE
:100A4000FFF444AFBDE8F88F00040140000011102E
:100A5000001002400000014000080140000C01406D
:100A600000100140001401400C040140014880685E
:100A70007047000010000020074810B5016841F0E1
:100A800010010160032000F073F8002000F006F868
:100A900000F024F8002010BD0020024070B50D4D7C
:100AA00004464FF47A712878B1FBF0F00A490968DE
:100AB000B1FBF0F000F0D6FB48B9102C07D20022B1
:100AC0002146501E00F034F800206C6070BD0120FB
:100AD00070BD0000100000201C0000200C4808B56C
:100AE000816941F001018161816901F00101009199
:100AF000C16941F08051C161C06900F0805000902F
:100B00000448416821F0E06141F08071416008BD16
:100B1000001002400000014000F01F02012191403E
:100B20004009800000F1E020C0F80011704700008B
:100B3000F0B40E4B1B680C46C3F30223C3F1070548
:100B4000042D00D90425191D072901D2002300E036
:100B5000DB1E012606FA05F1491E214099409E4000
:100B6000761E16403143F0BC00F020BD0CED00E0D5
:100B7000064900F0070208684FF6FF03184040EAF4
:100B80000220034A10430860704700000CED00E0AB
:100B90000000FA0510B529A401461DCC86B08DE8E9
:100BA0001D002AA02A4C006804900020012923D0AF
:100BB00002293AD010291DD161682268D20119D5C5
:100BC000C1F38342C9031DF8020009D5616804AA74
:100BD000C1F34041515C1F4AB2FBF1F1484301E0CF
:100BE0001D4948436168490204D440005FF0030195
:100BF000B0FBF1F006B010BD226AC2F30121012959
:100C000003D1920701D5C803F4E7022905D1626A2E
:100C1000920702D549F64040ECE70329EAD1216862
:100C20008903E7D54FF22440E4E700F053F9616807
:100C3000C1F38131491C4900DAE7000002030405D1
:100C4000060708090A0B0C0D0E0F10100102000018
:100C50000010024000127A0000093D002DE9F8431F
:100C600005460078354CC00754D0E0690026C00026
:100C700008D4E06940F08050E061E069012600F0AE
:100C8000805000902E480168C90512D40168804642
:100C900041F480710160FFF7E9FE074605E000BFFF
:100CA000FFF7E4FEC01B642823D8D8F80000C00575
:100CB000F6D5206A10F4407021D0A98801F4407163
:100CC00081421CD0206A1F49012220F440700A6032
:100CD00000220A602062C00711D0FFF7C7FE074656
:100CE00041F2883808E000BFFFF7C0FEC11B414554
:100CF00002D90320BDE8F883206A8007F4D5206A72
:100D0000696820F44070084320621EB1E06920F059
:100D10008050E0612878800705D56068A96820F4D4
:100D20004040084360602878C00605D56068E968DF
:100D300020F48000084360600020DBE700100240E0
:100D400000700040400442422DE9F047DFF8548132
:100D500005460E46D8F8000000F00700B0420CD25D
:100D6000D8F8001021F007013143C8F80010D8F876
:100D7000000000F00700B0426FD128684A4C81079C
:100D800012D5400703D5606840F4E06060602878C1
:100D9000000703D5606840F4605060606068A9682F
:100DA00020F0F000084360602878C00744D06868ED
:100DB000012816D02168022816D0890700294CDAAC
:100DC000616821F0030101436160FFF74FFE69682C
:100DD000074641F2883001290ED00229814618D0F9
:100DE00026E021688903E9E78901E7E7FFF73EFE8E
:100DF000C11B494501D918E081466068C0F38100F4
:100E00000128F3D118E000BFFFF730FEC11B4945B0
:100E10000BD86068C0F381000228F5D10CE000BF58
:100E2000FFF724FEC11B494502D90320BDE8F08726
:100E3000606810F00C0FF3D1D8F80010404601F0B4
:100E40000701B1420BD9016821F00701314301606C
:100E5000006800F00700B04201D00120E6E72878E2
:100E6000400705D56068E96820F4E06008436060E9
:100E70002878000706D56068296920F4605040EAA8
:100E8000C100606000F036F86168084AC1F30311E0
:100E9000515CC840064908600020FFF7FFFD0020B4
:100EA000C4E700000020024000100240E8490008AA
:100EB0001C0000200448054900684968044AC1F341
:100EC0000221515CC84070471C0000200010024005
:100ED000F84900080448054900684968044AC1F314
:100EE000C221515CC84070471C0000200010024025
:100EF000F849000812A185B00FC98DE80F0014A0B1
:100F0000144A006804905168134801F00C03042B44
:100F100010D0082B0ED1C1F38343C9031DF8030081
:100F20000AD5516804AAC1F34041515C0A4A5043B2
:100F3000B0FBF1F005B0704708494843FAE70000FC
:100F400002030405060708090A0B0C0D0E0F10100A
:100F5000010200000010024000127A0000093D006A
:100F60002DE9F84F04460078B94DC00748D06868AD
:100F7000C0F38100012807D06868C0F3810002280F
:100F800009D16868C00306D52868800338D5606831
:100F900000286FD034E06068B0F5803F0BD010B10E
:100FA000B0F5A02F11D0286820F480302860286880
:100FB00020F4802002E0286840F4803028606068D7
:100FC00088B1FFF753FD064609E0286840F4802009
:100FD0002860F0E7FFF74AFD801B642875D8286871
:100FE0008003F7D50CE0FFF741FD064605E000BFA2
:100FF000FFF73CFD801B6428F0D828688003F7D4F5
:101000002078944E80074FF001094FF000083BD53F
:10101000686810F00C0F07D06868C0F381000228E0
:1010200009D16868C00306D42868800714D52069F0
:1010300001281FD110E02069B0B1C6F80090FFF779
:1010400015FD074605E000BFFFF710FDC01B022895
:10105000C4D828688007F7D52868616920F0F800AF
:1010600040EAC10028600FE0C6F80080FFF7FEFCF0
:10107000074606E0E9E000BFFFF7F8FCC01B0228C6
:1010800023D828688007F7D4207800072CD5724829
:10109000A169D9B1C0F80090FFF7E8FC074604E069
:1010A000FFF7E4FCC01B02280FD8686A8007F7D559
:1010B0006A484FF4FA510068B0FBF1F0009000BFAD
:1010C0000098411E0091FAD20EE080E0C0F8008046
:1010D000FFF7CCFC074604E0FFF7C8FCC01B022862
:1010E00075D8686A8007F7D42078400760D5E8692A
:1010F0000027C00008D4E86940F08050E861E86942
:10110000012700F08050009055480168C90513D4AC
:101110000168834641F480710160FFF7A7FC8246B5
:1011200006E000BFFFF7A2FCA0EB0A0064284ED83F
:10113000DBF80000C005F5D5E06801280AD008B149
:10114000052813D0286A20F001002862286A20F0C0
:10115000040002E0286A40F001002862E06841F2E1
:10116000883B98B1FFF782FC82460BE0286A40F08A
:1011700004002862EEE700BFFFF778FCA0EB0A014D
:1011800059455AD8286A8007F6D50CE0FFF76EFC5F
:10119000824605E0FFF76AFCA0EB0A0159454CD8EE
:1011A000286A8007F6D41FB1E86920F08050E86112
:1011B000E06988B36968C1F38101022945D002283A
:1011C000C6F8608004D0FFF751FC044638E034E0F4
:1011D000FFF74CFC074604E0FFF748FCC01B022861
:1011E0002BD828688001F7D4206AB0F5803F05D15C
:1011F0006868A16820F4003008436860D4E90801F9
:101200000843696821F4741108436860C6F8609067
:10121000FFF72CFC044606E015E000BFFFF726FCB4
:10122000001B022809D828688001F7D50BE000BF11
:10123000FFF71CFC001B022802D90320BDE8F88F31
:1012400028688001F4D40020F8E70120F6E70000C8
:101250000010024000004242800442421C00002074
:101260000070004010B5401EB0F1807F01D3012016
:1012700010BD4FF0E02460610F21601700F096F977
:101280000020A06107202061002010BD70B504007F
:1012900004D094F83900002510B106E0012070BD9B
:1012A00084F83850204600F023F8242084F83900D0
:1012B0002068C16821F40051C160204600F018FA8E
:1012C0002068016921F4904101612068416921F0A1
:1012D0002A0141612068C16841F40051C160E563A1
:1012E000202084F8390084F83A00002070BD000006
:1012F00030B585B0002400940194029403940068F2
:10130000184988422CD11848816941F48041816193
:10131000816901F480410491816941F00401816196
:101320008069124D00F0040004904FF400700090AA
:10133000022001900320039069462846FFF7B8FA7F
:101340002815CDE90004694628460294FFF7B0FA53
:10135000002211462520FFF7EBFB2520FFF7DCFBE1
:1013600005B030BD003801400010024000080140C7
:101370002DE9F843044690F839001F4616460D46FD
:10138000202850D1A5B19EB194F8380001284AD048
:10139000012084F838004FF00008C4F83C80212078
:1013A00084F83900FFF762FBA6848146E68426E0D4
:1013B0000120BDE8F883E08C401EE084A0684B4625
:1013C000B0F5805F4FF000024FF08001204600979B
:1013D00003D000F045FAE8B90DE000F041FAC8B9D1
:1013E00028882168C0F308004860206908B16D1C96
:1013F00005E0AD1C03E0216815F8010B4860E08CA6
:101400000028D8D14B46002240212046009700F00A
:1014100027FA08B10320CCE7202084F8390084F8AB
:1014200038800020C5E70220C3E70000FEB5002594
:101430003E48009501953C490295016001248915BB
:101440004461C0E902150A2606614FF46021456037
:10145000C0E90641FFF750F808B1FEF7C9FFCDE932
:101460000054694631480295FEF7C4FF08B1FEF703
:10147000BFFF0094022469462C480194FEF7BAFF8E
:1014800008B1FEF7B5FF009403246946274801948C
:10149000FEF7B0FF08B1FEF7ABFF009404246946E5
:1014A00022480194FEF7A6FF08B1FEF7A1FF0094C1
:1014B000052469461D480194FEF79CFF08B1FEF71C
:1014C00097FF00940624694618480194FEF792FF9E
:1014D00008B1FEF78DFF0094072469461348019474
:1014E000FEF788FF08B1FEF783FF009408246946E1
:1014F0000E480194FEF77EFF08B1FEF779FF0094D5
:101500000924694609480194FEF774FF08B1FEF703
:101510006FFFCDE9004669460448FEF76BFF0028DF
:1015200001D0FEF765FFFEBD00240140CC00002085
:101530000D4808B5816941F020018161816901F0A0
:1015400020010091816941F004018161816901F00C
:1015500004010091816941F008018161806900F016
:101560000800009008BD000000100240704770475E
:101570000C4810B50A4901604FF4E1214160002197
:1015800081600C22C160C0E904128161C161FFF772
:101590007DFE002803D0BDE81040FEF729BF10BD36
:1015A00000380140FC000020FEE770470907090EE3
:1015B000002806DA00F00F0000F1E02080F8141D8A
:1015C000704700F1E02080F800147047704710B5B4
:1015D00001F0EAFF02F05CFEBDE8104001F0F8BF48
:1015E00030B593B028216846FEF72FFE14210AA8D3
:1015F000FEF72BFE002401200F9410941194010497
:1016000012948DE8130004904FF4E010CDE9081017
:10161000022507956846FFF7A3FC0F20CDE90A05D0
:101620006802CDE90C4002210AA80E94FFF78CFB5A
:10163000A80311900F950FA8FFF710FB13B030BD52
:10164000144910B54868144A10F00C03134803D02D
:10165000042B01D0082B09D002604968104AC1F35D
:101660000311515C0268CA40026010BD4A684B68B1
:1016700002F470124FF0020413F4803F04EB924224
:1016800002D04B689B0301D5064B00E0024B5A4346
:10169000E2E700000010024000127A001C00002067
:1016A000E849000800093D000D48016841F00101CA
:1016B000016041680B4A1140416001680A4A1140CB
:1016C0000160016821F480210160416821F4FE017C
:1016D00041604FF41F0181600449C00308607047F6
:1016E000001002400000FFF8FFFFF6FE08ED00E0EA
:1016F0002DE9F041044600680169E26821F4405197
:10170000114301612169A0680843616908432168A8
:10171000CA6841F20C639A430243CA602068416977
:10172000A26921F44071114341614C49206864254C
:10173000322688423CD1FFF7CDFB00EBC00101EB24
:10174000001061688900B0FBF1F7FFF7C3FB00EB05
:10175000C00101EB00106168B0468900B0FBF1F0F8
:10176000B0FBF5F06FF01801484307EB800106EB82
:101770000110B0FBF5F000F0F006FFF7ABFB00EB5B
:10178000C00101EB001061688900B0FBF1F0B0FB13
:10179000F5F006EB0016FFF79DFB00EBC00101EB37
:1017A000001061688900B0FBF1F7FFF793FB3BE0A5
:1017B000FFF780FB00EBC00101EB001061688900BE
:1017C000B0FBF1F7FFF776FB00EBC00101EB001077
:1017D0006168B0468900B0FBF1F0B0FBF5F06FF046
:1017E0001801484307EB800106EB0110B0FBF5F050
:1017F00000F0F006FFF75EFB00EBC00101EB00100C
:1018000061688900B0FBF1F0B0FBF5F006EB001663
:10181000FFF750FB00EBC00101EB0010616889008D
:10182000B0FBF1F7FFF746FB00EBC00101EB001046
:1018300061688900B0FBF1F0B0FBF5F06FF01801C2
:10184000484307EB800108EB0110B0FBF5F021687D
:1018500000F00F0030448860BDE8F081003801409E
:101860002DE9F041984617460E460446069D1DE0B8
:10187000681C1BD02DB1FFF7F9F8A0EB0800A842B7
:1018800014D92068C16821F4D071C1602068416911
:1018900021F001014161202084F8390084F83A00E8
:1018A000002084F838000320BDE8F081206800683B
:1018B00036EA000004D00020B842D9D00020F3E777
:1018C0000120F9E710B501F06FFE034802F0B6FF02
:1018D000BDE8104001F07CBE84010020FEE700005E
:1018E0000FB4054B10B503A9044A029800F0CAFAD8
:1018F00010BC5DF814FB0000F1260008C8000020B1
:101900000FB4084B10B504A902AA039800F0BAFA64
:10191000044602A9002000F0E9FB204610BC5DF857
:1019200014FB0000ED200008002806D00E4910F03E
:10193000FF0F03D0C0B2085C401C704710F47F4F0B
:1019400004D0C0F30720085C0930704710F47F0F03
:1019500004D0C0F30740085C1130704701EB106001
:1019600000781930704700000E4B000802E008C8EC
:10197000121F08C1002AFAD170477047002001E009
:1019800001C1121F002AFBD1704700000348016803
:10199000814201D00120704700207047A400002040
:1019A000F0B597B005465022174902A8FEF734FC5F
:1019B00016A42946204601F025F90746014622468D
:1019C00014A001F013FE384601F038F91BA001F015
:1019D0000DFE02AE2C6811E0207AA17BA4F1240355
:1019E000132802D856F8200000E01598CDE9000130
:1019F000202239461AA001F0F9FD2468AC42EBD14F
:101A000017B00020F0BD0000944A000864657669B4
:101A100063650000252D2A2E732020202020202001
:101A20002020747970652020202020202020207222
:101A3000656620636F756E740A000000202D2D2DE1
:101A40002D2D2D2D2D2D2D2D2D2D2D2D2D2D2D2DC6
:101A50002D202D2D2D2D2D2D2D2D2D2D0A0000006D
:101A6000252D2A2E2A7320252D32307320252D383E
:101A7000640A00002DE9FC41074627A401462046E0
:101A800001F0C0F880460146224626A001F0AEFDD6
:101A9000404601F0D3F82AA001F0A8FD3D6835E0EA
:101AA000A96805F10800A5F12404814204F12C0085
:101AB00020D0064601F0DAFDA18ECDE900102346C4
:101AC0002022414624A001F091FD34680CE000BFC3
:101AD000A4F12C0124A001F089FD2068B04202D0BD
:101AE00022A001F083FD2468B442F1D113A001F0DB
:101AF0007DFD0AE001F0BAFDA18ECDE9001023467C
:101B0000202241461AA001F071FD2D68BD42C7D1C7
:101B10000020BDE8FC81000073656D6170686F7224
:101B200065000000252D2A2E732076202020737555
:101B30007370656E64207468726561640A000000E9
:101B4000202D2D2D202D2D2D2D2D2D2D2D2D2D2DDF
:101B50002D2D2D0A00000000252D2A2E2A73202568
:101B60003033642025643A00257300002F00000004
:101B7000252D2A2E2A7320253033642025640A005F
:101B80002DE9FC41064628A40146204601F03AF81A
:101B9000074601462246264801F028FD384601F056
:101BA0004DF824A001F022FD356838E095F82900B1
:101BB000A5F1240400902346202239462DA001F0EF
:101BC00015FD94F84C0000F00F00012805D0022804
:101BD00005D030B1042806D008E029A004E02BA0ED
:101BE00002E02DA000E02FA001F000FD206C0146D6
:101BF00000E0401C0278232AFBD0626C642311446D
:101C0000081A5843B0FBF2F3D4F848C0A06DCDE9F0
:101C1000000C606B091A26A001F0E8FC2D68B542A3
:101C2000C4D10020BDE8FC81746872656164000065
:101C3000444C0008202D2D2D20202D2D2D2D2D2D17
:101C40002D202D2D2D2D2D2D2D2D2D2D202D2D2DDE
:101C50002D2D2D2D2D2D2D20202D2D2D2D2D2D20DB
:101C6000202D2D2D2D2D2D2D2D2D2D202D2D2D0AE1
:101C700000000000252D2A2E2A7320253364200021
:101C80002072656164792020000000002073757364
:101C900070656E640000000020696E697420202069
:101CA0000000000020636C6F7365202000000000BE
:101CB000203078253038782030782530387820204A
:101CC000202025303264252520202030782530380A
:101CD0007820253033640A002DE9FC4105461AA41A
:101CE0000146204600F08EFF06460146224618A017
:101CF00001F07CFC304600F0A1FF1FA001F076FC53
:101D00002C6815E0A4F124031F462022D7E90F0117
:101D1000CDE90001314621A001F068FC97F82100CF
:101D2000C00701D023A000E025A001F05FFC2468DB
:101D3000AC42E7D102F0A6FA014625A001F056FC1C
:101D40000020BDE8FC81000074696D657200000030
:101D5000252D2A2E732020706572696F64696320B7
:101D6000202074696D656F7574202020202020204C
:101D7000666C61670A000000202D2D2D2D2D2D2D64
:101D80002D2D2D202D2D2D2D2D2D2D2D2D2D202D9D
:101D90002D2D2D2D2D2D2D2D2D2D0A00252D2A2ECD
:101DA0002A732030782530387820307825303878FC
:101DB000200000006163746976617465640A000044
:101DC00064656163746976617465640A000000008B
:101DD00063757272656E74207469636B3A3078252E
:101DE0003038780A000000002DE9F04F89B09246A3
:101DF0008B460646002400E0641C305D202803D09A
:101E0000092801D05C45F7D34FF0FF387CB319485F
:101E100004F10609184F056811E0062217A1286889
:101E2000FEF746FA50B9286822463146801DFEF773
:101E30003FFA18B9296811F8090020B10835386847
:101E40008542EAD314E06C688CB120216846FEF725
:101E5000FCF96A465946304600F06CFE38B16946D6
:101E6000A047CAF80000002009B0BDE8F08FFFE7E6
:101E70004046F9E7280000202C0000205F5F636DDA
:101E8000645F00002DE9FF4F8BB09A460F46054670
:101E9000002606E025280BD052460D9990476D1C70
:101EA000761C28780028F5D10FB03046BDE8F08FB9
:101EB0000024A0460122604900E0044315F8013FD8
:101EC000203B02FA03F00842F7D128782E2817D1D8
:101ED00015F8010F44F004042A280ED06FF02F02E9
:101EE0002878A0F1300109290AD808EB880102EB13
:101EF000410100EB01086D1CF2E757F8048B6D1CE3
:101F0000287869283ED006DC0028CDD063280BD085
:101F1000642804D136E0732810D075284BD052467F
:101F20000D999047761C85E017F8040B8DF800009A
:101F300000208DF80100E946012003E057F8049BDA
:101F40004FF0FF3061074FF0000401D40AE0641C39
:101F500044450DDA8442FADB19F804100029F6D161
:101F600006E0641C8442FCDB19F804100029F8D157
:101F7000264404E019F8010B52460D999047641E5F
:101F8000F8D257E001CF4FF00A0B002802DA4042A6
:101F90002D2102E0210504D52B218DF824100121EB
:101FA00003E0E10705D02021F7E70DF120090891B2
:101FB0000CE00021F9E701CF4FF00A0BF9E7594691
:101FC000FEF785F901F1300209F8012D0028F6D15C
:101FD000ADEB090000F1200B600701D44FF00108C0
:101FE000D84502DDA8EB0B0000E00020804600246D
:101FF00006E009A85246005D0D999047641C761CC6
:1020000008988442F5DB04E0302052460D99904751
:10201000761CB8F10001A8F10108F5DC05E019F81B
:10202000010B52460D999047761CBBF10001ABF1B4
:10203000010BF4DC6D1C34E7092801002DE9FC419B
:102040001F460446DDE90831DDE90A652C304060B1
:102050000060C4E90E27C4E910310A46232118465E
:10206000343401F0B1FBD4E903014218D4E9010191
:10207000104B121F01F04EFA44F81A0B002004F81E
:1020800001690D4A04F8036BE4E8020544F81059AD
:1020900001C404F8540B01C444F8A4090090234679
:1020A0000190194604F15C0002F068F90020BDE8D7
:1020B000FC810000114000080342000810B5029C9A
:1020C00024F0010480F82140C0E90D120021C0E98C
:1020D0000F312C304060006010BDF0E90B124A60F7
:1020E000D0E9001211604060006070470A68531C1C
:1020F0000B6010707047000030B5B3B0C82101A864
:10210000FEF7A3F800244FF47A750F48FEF756FB4C
:1021100029460D48FEF7BAFA0B48FEF7E9F980B2F6
:1021200001AA0090234609A11046FFF7E9FB641CB1
:10213000E4B20A2CE9D30448FEF7A0FB01A907A0EA
:10214000FFF7CEFB33B030BDCC00002025730D0A65
:1021500061646325643D25640000000025730D0A59
:102160000000000010B51BA001F040FA1C4C2178C3
:102170001CA001F03BFA2078C00702D01FA001F09C
:1021800035FA2078800702D51FA001F02FFA2078B9
:10219000400702D51FA001F029FA2078000702D5D8
:1021A00020A001F023FA2078C00602D520A001F07B
:1021B0001DFA2078000607D509480F300168BDE8F0
:1021C00010401DA001F012BABDE810401EA001F0A1
:1021D0000DBA0000627573206661756C743A0A006E
:1021E00029ED00E05343425F434653525F4246535A
:1021F000523A307825303258200000004942555379
:102200004552522000000000505245434953455268
:1022100052200000494D50524543495345525220E7
:1022200000000000554E53544B4552522000000010
:1022300053544B45525220005343422D3E42464197
:10224000523A253038580A000A00000010B500F054
:10225000DBFA002010BD10B500F015FB002010BD0A
:1022600000207047104810B5416891F8391089076F
:1022700003D40E490020087013E0016821B18022C8
:102280000A48FDF7F9FF0CE000F052FC08B108A184
:1022900000E009A10548FEF702F809A10348FDF78F
:1022A000DFFF024810BD000020000020F0010020E8
:1022B0006D7368200000000066696E73682000007E
:1022C0003E000000034810B5406801F0B4FB002058
:1022D00010BD00002000002070B5044600F018FE7C
:1022E00005002AD0184C6068D0F88C00A8422AD08B
:1022F00040F24311284600F035FE002823D16068E3
:10230000D0F88C0038B100F0E9FD60680021D0F809
:102310008C0000F0ACFE606850213A30FDF795FF6C
:102320006068002100F88A1F4170C0F802502846FA
:10233000BDE87040054900F09ABE2146BDE87040F6
:1023400003A001F053B970BD20000020C522000891
:1023500066696E73683A2063616E206E6F742066E2
:10236000696E64206465766963653A2025730A00A6
:102370000349496811F8392F60F341020A70704728
:1023800020000020024A10600248016070470000EF
:10239000280000202C0000207CB516491648FFF7C5
:1023A000F1FF9021012000F02DFD144C6060D0B1B0
:1023B0000A210520CDE900014FF4007300221049E5
:1023C00010A001F000FE054600231A460FA1606828
:1023D00001F01EFB0120FFF7CBFF15B1284601F0ED
:1023E000D9FE00207CBD0BA001F000F94FF0FF30BA
:1023F0007CBD0000504E0008B84D000820000020B1
:102400002D240008747368656C6C00007368727822
:10241000000000006E6F206D656D6F727920666F31
:1024200072207368656C6C0A00000000A64C08B549
:10243000606810F8391F41F001010170D0F85300B5
:1024400020B900F031FD08B1FFF746FFFFF70AFFA2
:1024500001F0CCF84FF0FF36002703E0314660680A
:1024600001F004FB606801236A46D0F88C00314615
:1024700000F0D0FD0128F1D19DF800501B2D07D0B0
:10248000606890F83810012907D002290ED017E0B3
:102490006168012081F83800E4E75B2D02D080F804
:1024A00038700DE0022180F83810DBE780F83870D2
:1024B000412DD7D0422DD5D0442D38D0432D42D0F8
:1024C000002DCFD0FF2DCDD0092D4DD07F2D74D034
:1024D000082D72D00D2D6FD00A2DFCD090F88A10E7
:1024E000502901D380F88A7090F88B3090F88A10C8
:1024F0008B427DD2CA1A00F13A013B30194418448C
:1025000001F048F9606890F88B103A300D5460681B
:1025100090F83910C90706D090F88B103A30014472
:102520006AA001F063F8616891F88B50A8E090F818
:102530008B00002896D066A001F058F8606810F86B
:102540008B1F491E0EE090F88B1090F88A20914264
:1025500088D23A30095C5FA001F048F8606810F852
:102560008B1F491C01707DE7002503E058A001F096
:102570003DF86D1C606890F88B00A842F6DC656839
:1025800055A03A3501F032F800F0D2FA012802D114
:10259000284600F00FFAFFF765FE01462A464FA0D5
:1025A00001F024F860683A30FDF772FE616801F8C6
:1025B0008A0F487056E700E03FE090F88B10002942
:1025C000D1D090F88A20491E521ED2B2C9B280F8EA
:1025D0008A20254680F88B108A4225D900F13B03DA
:1025E0003A30521A0B440844194601F0D3F800E07F
:1025F0004CE0606890F88A103A300F54606890F8A8
:102600008B103A30014437A000F0F0FF606890F87A
:102610008B5003E02EA000F0E9FF6D1C606890F87D
:102620008A00A8429FDBF5E730A000F0DFFF686872
:1026300090F88A103A300F5414E700F079FA012824
:102640000ED16068254690F83900C00702D022A05C
:1026500000F0CCFF686890F88A103A3000F000FA79
:10266000FFF700FE00F0C2FF6068502125463A30B7
:10267000FDF7EBFD686822E015A000F0B7FF6D1CC8
:10268000606890F88A00A842F6DC0AE03A300D54FF
:10269000606890F83900C00703D029460DA000F00B
:1026A000A5FF606890F88A10491CC9B280F88A10AA
:1026B00090F88B20521C80F88B205029BCD300F856
:1026C0008A7F4770CEE600002000002025730000BE
:1026D00008000000256300000A0000002573257330
:1026E00000000000082573202008000008200800D2
:1026F00013B54FF6FF73012269460248FEF738FE14
:1027000000981CBDFC00002010B5124C206880070A
:1027100002D511A000F06AFF2068400011D50D48D5
:10272000C01E007808B1FFF71DFD0A48001F0078A1
:1027300008B100F0D3F80748801E008808B102F005
:10274000D1F82068002804DABDE8104008A000F0A5
:102750004DBF10BD2CED00E06661696C65642076AC
:102760006563746F722066657463680A0000000018
:102770006465627567206576656E740A0000000006
:1027800010B502A000F032FF002010BD48656C6C4F
:102790006F2052542D546872656164210A00000054
:1027A00070B50BA000F022FF0E480F4D04680AE040
:1027B00002220EA12068FDF77BFD18B10CA0216854
:1027C00000F014FF083428688442F1D3002070BD63
:1027D0002D2D46756E6374696F6E204C6973743A63
:1027E0000A000000280000202C0000205F5F00008D
:1027F00025730A0010B5082001F058F8BDE8104014
:10280000001DFFF7CDB8000010B5074C07A0E16828
:1028100000F0ECFE0AA0216900F0E8FE6169BDE865
:1028200010400CA000F0E2BE40000020746F746104
:102830006C206D656D6F72793A2025640A00000086
:1028400075736564206D656D6F7279203A2025641B
:102850000A0000006D6178696D756D20616C6C6FA8
:102860006361746564206D656D6F72793A202564CB
:102870000A00000010B5012001F018F8BDE8104072
:10288000001DFFF7F7B810B5002001F00FF8BDE804
:102890001040001DFFF774B910B5092001F006F8CB
:1028A000BDE81040001DFFF717BA10B5FEF7E4F8B9
:1028B000FEF796FEFEF73CFEFEF7B8FDFEF758FE6B
:1028C000FEF754FEFEF753FE002010BD10B500F0D9
:1028D000DDFABDE81040FFF7E8BF000010B518A012
:1028E00000F084FE1B4C21781BA000F07FFE2078B6
:1028F000C00702D01EA000F079FE2078800702D524
:102900001EA000F073FE2078000702D51EA000F084
:102910006DFE2078C00602D51EA000F067FE20786C
:10292000000607D50B480C300168BDE810401CA01C
:1029300000F05CBEBDE810401D4800F057BE00002E
:102940006D656D206D616E616765206661756C7483
:102950003A0A000028ED00E05343425F43465352D9
:102960005F4D4653523A30782530325820000000EF
:102970004941434356494F4C2000000044414343E2
:1029800056494F4C200000004D554E53544B455274
:10299000522000004D53544B45525220000000007D
:1029A0005343422D3E4D4D41523A253038580A008E
:1029B000544900082DE9F0478046002500782C4650
:1029C00018B12248224F066831E0BDE8F0470021E7
:1029D000084600F077B806221EA13068FDF768FCB3
:1029E00020BB306800F106094046FDF751FC024665
:1029F00049464046FDF75CFCC0B925B94C464846FF
:102A0000FDF746FC05464946204601E0401C491CAE
:102A100002781AB10B780BB19A42F7D0001BA8428A
:102A200000DA054649460DA000F0E0FD083638689A
:102A30008642D0D3002C06D02A4621464046BDE827
:102A4000F04701F021BABDE8F0870000280000201F
:102A50002C0000205F5F636D645F000025730A0037
:102A600038B5044601E0491E641C20782028FAD0BD
:102A70000928F8D031B16A462046FFF7B5F918B1F8
:102A8000204604E0002038BD009838BD401C017885
:102A9000202901D00029F9D100210170214603A08D
:102AA00000F0A4FD4FF0FF3038BD000025733A2040
:102AB000636F6D6D616E64206E6F7420666F756EEE
:102AC000642E0A0070B50DA000F090FD1248134D61
:102AD00004680BE0062212A12068FDF7E9FB20B98B
:102AE000216811A0891D00F081FD08342868844206
:102AF000F0D30EA000F07AFD002070BD52542D548A
:102B00006872656164207368656C6C20636F6D6DBD
:102B1000616E64733A0A0000280000202C00002037
:102B20005F5F636D645F0000257320000A00000092
:102B30000120704770B5002315461C461A464BE02D
:102B400000F8012B5B1C0678202E01D0092E01D144
:102B50008B42F5D3082C11D321A000F047FD0026AD
:102B600006E000BF55F8261025A000F03FFD761CBA
:102B7000A642F7D321A000F039FD2FE08B422DD2E1
:102B8000F6B2222E03D045F82400641C1BE0401C42
:102B900045F824005B1C641C08E05C2E04D14678D8
:102BA000222E01D1401C5B1C401C5B1C0678222E8F
:102BB00001D08B42F1D38B4210D200F8012B5B1C69
:102BC0000AE0401C5B1C0678202E03D0092E01D0A1
:102BD0008B42F6D38B4201D28B42B4D3204670BDD8
:102BE000546F6F206D616E792061726773202120B0
:102BF0005765206F6E6C79205573653A0A000000A6
:102C00002573200070B50E4601F026F9054600F048
:102C100045FA346808E000BFA4F1240001F01CF973
:102C2000A84200DD05462468B442F5D100F044FA1C
:102C3000202D00DC05B92025284670BD10B50446BE
:102C400002E003A000F0D2FC641EFAD210BD000026
:102C50002D00000030B5134943680A68134402F19F
:102C6000080498420DD05D885DB94D68AB4208D02C
:102C70008D689D4200D188605D6845605B68851AFB
:102C80001D518368134483420BD05D88002D08D109
:102C90008D68854200D18B60416859604068991AFF
:102CA000015130BD400000202DE9F04F85B099461C
:102CB000DDE90EA5109CAB46630602D5DFF814C112
:102CC00003E0DFF810C1ACF1110CE30601D524F0EC
:102CD0000104E30701D0302300E020230026049301
:102CE000A3070BD5002A02DA2D26524206E063071D
:102CF00001D52B2602E0230700D520260023EE462F
:102D000022B930228DF8002001230CE0B9F10A0F1E
:102D100014D002F00F0812091CF808800EF8038086
:102D20005B1C002AF2D1AB4200DD1D46AAEB050276
:102D300014F0110F4FF0200708D015E00A27B2FB5E
:102D4000F7F807FB1828B2FBF7F2E5E73EB1002AD7
:102D500005DD521E03E0884200D80770401CB2F126
:102D6000000CA2F10102F6DC26B1884201D80670FF
:102D7000521E401CE40605D508E0884201D8049C98
:102D80000470401C141EA2F10102F6DC30242E4611
:102D90006D1E9E420ADD884200D80470401CF6E792
:102DA000884201D8E55C0570401C00E074461D1E99
:102DB000A3F1010307DDBBF1000FF1D103E088426D
:102DC00000D80770401C131EA2F10102F7DC05B009
:102DD000BDE8F08F1F4C00081CB514210A20CDE976
:102DE00000014FF480630022034904A001F0EBF8D6
:102DF000BDE81C4001F0CEB9CD2800086D61696EB8
:102E00000000000070B54843044600F04BFC05008C
:102E100003D02246002100F0D7FC284670BD70B5D3
:102E200004460068012816D0FDF77CF9054601200C
:102E300001C42068A04209D02C3801F087F9284647
:102E4000FDF774F9BDE8704000F06ABD2846BDE8A2
:102E50007040FDF76BB970BD10B50446FDF762F91F
:102E6000002102C464602460BDE81040FDF75EB933
:102E700070B5044C044D02E020688047241DAC422C
:102E8000FAD370BDA84D0008AC4D000870B5044CD5
:102E9000044D02E020688047241DAC42FAD370BD87
:102EA000AC4D0008B44D00080148006870470000B0
:102EB0003800002070B5084C266800F029F805009D
:102EC00008D0206808B100F009F84321284600F036
:102ED00049F82560304670BD3800002010B5044622
:102EE000002094F8321031B1491E11F0FF0184F82E
:102EF000321003D010BD4FF0FF3010BD616C21B116
:102F00002046884708B1811DF7D10021218610BDD8
:102F10002DE9F041064601F037F908B100F0BEF89E
:102F2000082000F0C3FC50F8044F074609E000BF3A
:102F3000A4F1240520223146284600F095FF50B127
:102F40002468BC42F4D101F01FF908B100F0B4F8D4
:102F50000020BDE8F08101F017F908B100F0ACF8ED
:102F60002846F6E770B5044690F82E0000250E4678
:102F7000C0060FD4E16B49B120468847050005D053
:102F80000246214615A000F031FB24E0E08D40F020
:102F90001000E08594F82E00000706D594F8300064
:102FA000000702D56FF0060070BD226C3AB13146C1
:102FB00020469047050006D0A81D04D00BE040F63F
:102FC0000F700640268634F8300F40F0080020804D
:102FD000A078401CA070284670BD0000546F206986
:102FE0006E697469616C697A652064657669636588
:102FF0003A2573206661696C65642E2054686520EB
:103000006572726F7220636F646520697320256436
:103010000A00000010B590F832402CB1846C34B135
:10302000A446BDE8104060474FF0FF3001E06FF06C
:10303000050000F0A9FE002010BD2DE9F041154665
:1030400004000F464FF0FF3603D00846FFF760FF3D
:1030500010B13046BDE8F0813A460821204600F024
:1030600037FCE585002084F832002086F2E74163D2
:103070000020704710B590F832402CB1C46C34B1C8
:10308000A446BDE8104060474FF0FF3001E06FF00C
:10309000050000F079FE002010BD000010B5FDF71E
:1030A00041F8044A5188491C5180BDE81040FDF7A1
:1030B0003DB800009800002010B5FDF733F809492D
:1030C0004A88521E12B24A80002A07DC00224A8037
:1030D000FDF72CF8BDE8104000F022BCBDE8104020
:1030E000FDF724B89800002070B5002833D01A4DA1
:1030F000296888422FD3696888422CD2A0F10C0439
:103100004FF0FF31154800F0B1FC60884FF4F556E0
:1031100010B12088B04208D011A000F067FA2388CF
:103120006288214615A000F061FA002060802680A8
:10313000A868844200D2AC6029686068611A401AAD
:103140002969081A28612046FFF784FDBDE8704010
:10315000024800F070BC70BD400000209C1C0020A4
:10316000746F20667265652061206261642064610D
:10317000746120626C6F636B3A0A00006D656D3A92
:10318000203078253038782C207573656420666C83
:1031900061673A2025642C206D6167696320636F45
:1031A00064653A203078253034780A00004870474A
:1031B0007402002000487047741A002010B5FEF712
:1031C0003FFA12484FF47A710068B0FBF1F0401EEC
:1031D000B0F1807F09D24FF0E0210D4A4861FF2015
:1031E0001070002088610720086100F0AFF9FFF738
:1031F0003FFE08A0FFF75EFEFFF7DCFF0446FFF787
:10320000D5FF2146BDE8104000F052BE1C00002052
:1032100023ED00E07561727431000000704700001A
:1032200070B50546041D2D48016819B12846884728
:10323000002851D02AA0E16B00F0D8F92CA0216A17
:1032400000F0D4F92EA0616A00F0D0F930A0A16A94
:1032500000F0CCF932A0E16A00F0C8F934A021688E
:1032600000F0C4F936A0616800F0C0F938A0A16888
:1032700000F0BCF93AA0E16800F0B8F93CA021697F
:1032800000F0B4F93EA0616900F0B0F940A0A16976
:1032900000F0ACF942A0E16900F0A8F944A0216B6C
:1032A00000F0A4F946A0616B00F0A0F948A0A16B62
:1032B00000F09CF92878400708D500F065FF01462A
:1032C00047A000F093F9FFF7DEFA02E04CA000F00F
:1032D0008DF9FFF719FAFEE770BD0000B800002075
:1032E0007073723A203078253038780A0000000078
:1032F0007230303A203078253038780A00000000EB
:103300007230313A203078253038780A00000000D9
:103310007230323A203078253038780A00000000C8
:103320007230333A203078253038780A00000000B7
:103330007230343A203078253038780A00000000A6
:103340007230353A203078253038780A0000000095
:103350007230363A203078253038780A0000000084
:103360007230373A203078253038780A0000000073
:103370007230383A203078253038780A0000000062
:103380007230393A203078253038780A0000000051
:103390007231303A203078253038780A0000000049
:1033A0007231313A203078253038780A0000000038
:1033B0007231323A203078253038780A0000000027
:1033C000206C723A203078253038780A00000000EE
:1033D0002070633A203078253038780A00000000E9
:1033E00068617264206661756C74206F6E20746809
:1033F000726561643A2025730D0A0D0A0000000011
:1034000068617264206661756C74206F6E206861FB
:103410006E646C65720D0A0D0A0000002DE9F04122
:103420000546C8B2012806D002284CD1A86EBDE8D6
:10343000F041FFF7F4BC6C6E0027A86DC168284608
:1034400088470646401C22D0FCF76CFE0146A28845
:1034500020688654A088401C80B2A0802A6EC2F3E7
:103460008F22904200D3A780A288E08882420AD1AE
:10347000401C80B2E0800122A2602A6EC2F38F223B
:10348000904200D3E7800846FCF750FED5E7686B12
:10349000002818D0FCF746FE0246A088E188884242
:1034A00001D3441A04E0081A296EC1F38F210C1AC3
:1034B0001046FCF73BFE002C05D0214628466A6BDF
:1034C000BDE8F0411047BDE8F081000030B40024B1
:1034D00080F82C4044638463084CC463084C046443
:1034E000084C4464084C8464084CC464084CC0E92B
:1034F000144330BC92B2FFF7A0BD0000DF3B0008D0
:10350000F93B00081F3B0008D13C0008433D000880
:103510007B3B000870B50446121D22F00700002214
:10352000094D403840F82250521C102AFAD301624B
:103530000021416281624FF0807200F13005C26368
:10354000C16285E81A0070BDEFBEADDE2DE9F05F07
:1035500012480125DFF848A0D0E90067DFF8448071
:10356000002400F1080940F2031B00BFC4EB041162
:1035700001EB410208EB82030AEB0410C3F8A090B0
:103580001864C3E92967016803F148005A46FFF748
:103590009DFF641CAC42E9D3BDE8F09FD049000810
:1035A000000000203C01002010B5FCF7BBFD044AE0
:1035B0001178491C1170BDE81040FCF7B7BD000040
:1035C00034000020014800787047000034000020DB
:1035D00010B5FCF7A7FD044A1178491E1170BDE82B
:1035E0001040FCF7A3BD0000340000200FB47F2181
:1035F00070B505AB0D48049A00F038FF03467F28EC
:1036000000D97F230A4D286860B1048E074A44F030
:10361000400101860021FFF72DFD2868048670BC5B
:103620005DF814FB0148FFF7F9FDF8E71C1C0020CA
:10363000380000200268516002680A60016048603A
:1036400070470268516002680A6001604860704714
:103650000268516002680A60016048607047426811
:10366000116042684A60416008607047024600216C
:1036700000E0491C00689042FBD108467047D0E941
:1036800000124A60D0E9001211604060006070478B
:10369000D0E900124A60D0E9001211604060006079
:1036A000704700002DE9F047002807D0374CC01CB8
:1036B00020F00306E068864202D90020BDE8F087CA
:1036C0000C2E00D20C264FF0FF31314800F0CEF91D
:1036D000D4F808C02168E768ACEB0100BA1B4FE0E2
:1036E0000D186B88E3BB6B681B1A0C3BB34246D3C7
:1036F0006A6806F11803121A0C3A4FF001094FF4E8
:10370000F55A9A422DD383190C33CA184FF000088A
:10371000A2F800A0A2F80280D5F80480C2E90180D6
:103720006B60A5F8029050680C37B84202D001F1E6
:1037300008028350206930440C3020616269824263
:1037400000D26061A5F800A0654512D1A06842884A
:103750007AB1626890420CD040680844A060F6E7F5
:103760000DE0A5F8029068686A1A801A2269104470
:10377000E3E7074800F05FF905F10C009EE7686891
:103780008242ADD8024800F056F996E7400000208A
:103790009C1C002010B50346994211D28C189C4203
:1037A0000ED9811804E000BF14F8013D01F8013D75
:1037B000521EF9D210BD00BF11F8014B03F8014BA6
:1037C000521EF9D210BD000010B50346CCB2042A37
:1037D0001AD3810718D1194644EA042343EA034364
:1037E00006E008C1103A08C141F8083B41F8043C22
:1037F000102AF6D201E008C1121F042AFBD20B46A0
:1038000002E000BF03F8014B521EFBD210BD2DE9B0
:10381000F0410F46064600F049F80546C068FFF73C
:1038200041FF04001BD00021EA68FFF7CDFF84F8B8
:103830002060002084F8210020223946204600F034
:1038400023FBFCF76FFC064604F12401281DFFF75B
:10385000F1FE3046FCF76AFC2046BDE8F08100200E
:10386000FBE770B50446002084F82000FCF75AFC02
:10387000054604F12400FFF702FF2846FCF756FC3A
:103880002046BDE87040FFF72FBC70B5044600200D
:1038900084F82000FCF746FC054604F12400FFF7FD
:1038A000EEFE2846BDE87040FCF740BC074A002108
:1038B00002EB01131B78834202D102EB0110704727
:1038C000491C0429F4DB0020704700005800002048
:1038D0002DE9F041044616460D460846FFF7E6FF7F
:1038E000074645F0800084F820002022314620461B
:1038F00000F0CAFAFCF716FC054604F12401381D55
:10390000FFF798FE2846BDE8F041FCF70FBC90F8A1
:103910002000000601D501207047002070470000FC
:1039200070B5FCF7FFFB114C05466088B0B9A06884
:10393000FDF7FAFF0E49401E626851F830102C392D
:1039400091420BD020700B486160007801F1340186
:10395000002802F1340006D0FCF7EBFB2846BDE856
:103960007040FCF7E3BBFCF7E4FBF7E798000020AE
:10397000D41C00203400002010B50446FCF7D2FB14
:10398000024694F84C000E4920F00F00401C84F8C9
:103990004C0094F84D0001EBC00104F12C004B6881
:1039A00018604B68236348600648E162216D8368B4
:1039B00019438160BDE810401046FCF7B7BB00001A
:1039C000D41C00209800002010B50446FCF7AAFB88
:1039D00004F12C01D1E900235360D1E900231A60DE
:1039E0002163E16294F84D20074951F8323001EB30
:1039F000C2018B4204D10549236D8A689A438A60CB
:103A0000BDE81040FCF792BBD41C002098000020B9
:103A10002DE9F04116460A461F4605460121FFF7EB
:103A200057FF05F12C042C63EC62AE8685F82170FB
:103A30000020BDE8F08170B50446FCF773FB054635
:103A4000E06A04F12C01884208D02C3800F07EFB9B
:103A50002846FCF76BFBFFF763FF05E0A08E401CD8
:103A6000A0862846FCF762FB002070BD2DE9F341DB
:103A70000446FCF757FB0746A08E28B1401EA086DF
:103A80003846FCF753FB48E0019878B100F07CFB26
:103A900006460020B06404F12C0594F8214030461D
:103AA00000F08EFBFCB1012C22D106E03846FCF779
:103AB0003DFB6FF00100BDE8FC812C680FE000BF0A
:103AC00096F84D1094F82120A4F12C00914205D2D3
:103AD00006F12C012C30FFF7C2FD02E02468AC4255
:103AE000EED1AC4204D106F12C012846FFF7B7FD18
:103AF0000198002809DD06F15C0001AA00210446B6
:103B000000F012FC204600F04DFC3846FCF70EFB9E
:103B1000FFF706FFB06C0028CDD10020CBE770B5D1
:103B2000044690F83200012825D8208E4FF0000579
:103B3000C0050ED5606EFFF7D7FA6566208E4FF48C
:103B4000807220F480712186A06D11214368204687
:103B50009847208E40050ED5A06EFFF7C5FAA566E2
:103B6000208E4FF4806220F480612186A06D1121A7
:103B7000436820469847002070BD70B50024012995
:103B80000DD0022907D003290ED0836D5B689847BA
:103B90000446204670BDC18D41F0200102E0C18D78
:103BA00021F02001C185F4E7002AF2D05168056EAA
:103BB000C1F38F23C5F38F25AB4204D090F8323088
:103BC0000BB1072070BD1368C0E9173190F83210AF
:103BD0000029DED0816D0B6811469847D9E710B5F2
:103BE000002141668166826D12681AB100F15C01A4
:103BF00090470146084610BD2DE9F04104460027D4
:103C00000E46C80506D5E08DC00503D46FF0070049
:103C1000BDE8F081700603D494F83000400600D56A
:103C20004027F0B22086616E4FF00008A1B1F10587
:103C300002D540F480712186A06E00284FEA4650DC
:103C400030D0002803DA208E40F480602086208E59
:103C5000384320860020DBE7F005EDD5206EC0F369
:103C60008F200C30FFF71EFD05460C300346286000
:103C7000206E0021C0F38F221846FFF7A5FDA5F89E
:103C80000480A5F80680C5F808806566208E4FF48C
:103C9000807240F480712186A06D10214368204617
:103CA0009847C9E70028D2DA0C20FFF7FBFC05464D
:103CB000FFF7D2F8A566208E4FF4806240F4806151
:103CC0002186A06D1021436820469847BFE7000079
:103CD0002DE9F04793B30746008EC0052FD5164651
:103CE0001C4699464FF0000AD7F86450FCF71AFAC0
:103CF000E988AA88914201D1AA6882B12A6812F89B
:103D00000180491C89B2E9803A6EC2F38F22914248
:103D100001D3A5F806A0A968012903D004E0FCF7A7
:103D200005FA07E0C5F808A0FCF700FA06F8018BD1
:103D3000641EDBD1A9EB0400BDE8F087FFE700209B
:103D4000FAE72DE9F0413BB1074616461D461C46F1
:103D500030780A2803D00BE00020BDE8F08197F806
:103D60003000400604D5B86D0D2182683846904772
:103D7000B86D31788268384690476D1E06F10106AD
:103D8000E6D12046E9E7000070B50446FFF71AFCCB
:103D9000044D20B900F0F8F908B1846470BD6C607E
:103DA00070BD00003800002008B509A0FFF71EFC18
:103DB0000AA0FFF71BFC12A000900223012203219E
:103DC00012A0FFF713FCBDE8084018A0FFF70EBCD7
:103DD0000A205C207C202F0A000000002D20525475
:103DE000202D2020202020546872656164204F70AF
:103DF00065726174696E672053797374656D0A002A
:103E00004D6172203139203230313900202F207C31
:103E1000205C202020202025642E25642E2564206F
:103E20006275696C642025730A000000203230300E
:103E300036202D203230313920436F707972696716
:103E400068742062792072742D74687265616420D0
:103E50007465616D0A000000014600E0491C0A78A3
:103E6000002AFBD1081A704710B5002308E0047837
:103E700011F8013BE31A5BB223B9401C14B1521E86
:103E8000002AF4D1184610BD10B5002A07D0034609
:103E900011F8014B03F8014B2CB1521EF8D110BDA3
:103EA00003F8011B00E00021521EF9D110BD0000F3
:103EB0000A46C11C10B522F0030321F00301182BA0
:103EC00020D9A3F118048C421CD3114C581A18386D
:103ED0002160E0604FF4F5520A8000230C30C1E904
:103EE00001034B804B68194461600A8001224A80BB
:103EF00048608860002307A10848FFF789FD206813
:103F0000A06010BD0146BDE8104005A0FFF76EBBE4
:103F10004000002068656170000000009C1C0020CB
:103F20006D656D20696E69742C206572726F7220E8
:103F3000626567696E2061646472657373203078AE
:103F400025782C20616E6420656E64206164647243
:103F500065737320307825780A00000010B50A498F
:103F600000230A4C4B80184604EBC002401C5260F0
:103F700012602028F8DB1F20087003484B600C30CB
:103F80008B604060006010BD98000020D41C0020B1
:103F900010B5074CA068FDF7C7FC0649401E51F854
:103FA00030002C386060BDE810403430FCF7EFB8CA
:103FB00098000020D41C0020014840600060704739
:103FC000B000002070472DE9FF478946DDE90C76F7
:103FD000824601461D4690460020FFF718FC041E4D
:103FE0000DD02846FFF75EFB60B103968DE8A10077
:103FF00043464A4651462046FEF720F8204604B084
:10400000BDE8F0872046FFF72CFC0020F7E7000012
:1040100070B513480468FCF785F805462046FFF79D
:10402000D3FC042084F84C0004F15C0000F096F905
:104030002046FFF76CFC012802D1D4F8A00058B14B
:1040400004F12C010748FFF7FCFA2846FCF76EF84C
:10405000BDE87040FFF764BC2046FFF716FCF4E7AC
:104060009C000020A400002000F002F8FCE7000003
:1040700070B528E0FCF756F80546FDF787FC48B315
:1040800017480168A1F12C04D1E900024260D1E98E
:104090000002106049600960FFF700F8D4F8A01032
:1040A00009B1204688472046FFF731FC01280FD090
:1040B000FFF702F82846FCF739F8206CFFF714F8F0
:1040C0002046FFF7CEFBFDF761FC0028D2D170BD82
:1040D000FEF7F2FF2846BDE87040FCF727B8000065
:1040E000A40000201FB5202308481F22D9008DE816
:1040F0000F000023064A07A1A83800F00FF804B00B
:104100000248BDE81040A83800F044B81C1B00204D
:10411000694000087469646C650000002DE9FF5F68
:1041200092460EAA0C4692E8E0010A46994683465A
:104130000021FFF7CDFB8DE8E0014B4652462146BA
:104140005846FDF77BFF04B0BDE8F09F70B504460C
:1041500090F84C0000F00F00022802D04FF0FF3022
:1041600070BDFBF7DFFF054604F12C00FFF790FA66
:1041700004F15C0000F060F92846FBF7D7FF204609
:10418000FFF7FAFB002070BD01480068704700008F
:104190009C00002010B590F84E10012280F84D10C0
:1041A0008A400221026580F84C10FFF7CFFF0348D8
:1041B000006808B1FFF7B4FB002010BD9C00002090
:1041C00070B5044690F84C0000F00F00012802D0B2
:1041D0004FF0FF3070BDFBF7A5FF054694F84C008B
:1041E00020F00F00801C84F84C002046FFF7ECFB09
:1041F00004F15C0000F020F92846FBF797FF00204F
:1042000070BD10B504466FF00100A06404F12C00ED
:10421000FFF73EFA2046FFF7AFFBBDE81040FFF77F
:104220007FBB000070B5FBF77DFF064613480468AE
:1042300094F84C0000F00F00012819D1D4E90B01CB
:10424000884215D004F12C000546FFF721FA94F8B6
:104250004D000B4901EBC00041680D604168696089
:10426000456028603046FBF761FFFFF759FB02E02D
:104270003046FBF75BFF002070BD00009C00002073
:10428000D41C002001480068704700003000002066
:10429000094810B50168491C0160FFF775FF816D81
:1042A000491E816503D1416D8165FFF7BBFFBDE804
:1042B000104000F003B80000300000202DE9F0416C
:1042C000FFF7E0FF0646FBF72DFF0746154D21E0FF
:1042D00060696FF00041301A2C3C88421DD22046A4
:1042E000FDF7FBFED4E90D108847FFF7CBFF06462C
:1042F00094F82100810709D5C10707D020F00100FB
:1043000084F82100204600F04DF803E020F0010081
:1043100084F821002C68AC42DAD13846BDE8F0417F
:10432000FBF704BFB000002049B1012904D00229E5
:1043300008D0032910D10AE0C06B10600CE01168AE
:10434000C16309E010F8211F21F0020103E010F819
:10435000211F41F0020101700020704770B5054631
:10436000FBF7E0FE04462846FDF7B7FE2046FBF7C4
:10437000DDFE2846FFF789FA002070BD2DE9F843DD
:104380009046DDE908450A461F4606460921FFF723
:104390009FFA23463A46414630460095FDF78EFE89
:1043A000BDE8F883F8B50446FBF7BCFE0546204699
:1043B000FDF793FE94F8210020F0010084F821001D
:1043C0002846FBF7B3FEFFF75DFFE16B084420646E
:1043D000FBF7A8FE0546174A0020009202EBC00238
:1043E000694653686FF0004C5DF820200BE01268BE
:1043F000A2EBC0067769266CB74202D0BE1B6645A9
:1044000003D341F820209A42F1D10A48001F0168E5
:10441000491C016004F12C010098FFF719F914F808
:10442000210F40F0010020702846FBF77FFE00209E
:10443000F8BD0000B000002070B5044690F82100DF
:10444000C0070FD0FBF76EFE05462046FDF745FE80
:104450002846FBF76BFE14F8210F20F001002070B6
:10446000002070BD4FF0FF3070BD00002DE9FF4F00
:10447000471804467F1E83B080464FF0FF394FF047
:10448000200A4FF0250BA74200D24F4608E125280D
:1044900003D0BC4200D8207081E000260599491C59
:1044A000059108782D2811D02B2812D0202813D060
:1044B000232814D0302815D00A784D46303A0A2ADD
:1044C00013D205A800F029F905461AE046F01006B7
:1044D000E4E746F00406E1E746F00806DEE746F0CA
:1044E0002006DBE746F00106D8E72A2809D106981E
:1044F000491C059120C80690002D02DA6D4246F055
:104500001006CDF80090059801782E2918D1401C8E
:1045100005900178A1F130020A2A04D205A800F022
:10452000FCF8009008E02A2908D1401C0590069864
:1045300002C8069000910846002801DA0020009089
:10454000059A00201178682901D06C2902D1521CEB
:104550000846059211780A236F296ED00CDC632976
:104560001FD004DC252979D058290DD17FE064299A
:1045700001D0692908D17EE0702960D073292CD040
:1045800075297AD0782974D0BC4201D884F800B05B
:104590000598641C0178D1B3BC4200D82170641C1A
:1045A0007BE0F00608D450466D1E002D04DDBC42B1
:1045B00000D82070641CF7E70698BC4210F8041B72
:1045C000069000D82170504602E0BC4200D820700E
:1045D000641C6D1E002DF8DC5FE0069808C806908C
:1045E00003B93DA31846FFF737FC0099002902DD07
:1045F000884200DD0846F1060AD451462A466D1E5F
:10460000824205DDBC4200D82170641CF6E750E010
:10461000002106E0BC4201D81A782270491C5B1CBC
:10462000641C8142F6DB524629466D1E814234DD10
:10463000BC4200D82270641CF6E716E00EE0681C4D
:1046400002D1082546F0010600980296CDE90050F7
:1046500006981023394604C806901AE0BC429ED83A
:1046600084F800B09BE708E003E0082305E046F08B
:104670004006102301E046F002066C2801D06828AD
:104680001AD0069804C8069000983946CDE9005023
:1046900002962046FEF708FB04460598401C05904C
:1046A0000598007800287FF4F2AEBC420DD8207047
:1046B0000CE0401E0590F0E7069830F8041B0690C9
:1046C0008AB2B007E0D512B2DEE7387007B0A4EBCB
:1046D0000800BDE8F08F0000284E554C4C29000022
:1046E000002070470020704700207047002070476E
:1046F00010B5FBF717FDFEF761FDFFF755FBFFF760
:104700005BFCFFF72BFCFEF767FBFFF75BFCFFF79B
:10471000E9FCFFF73DFC002010BD10B5014600206C
:104720006FF02F0307E0541C0C60127800EB800040
:1047300003EB400010440A681478303C0A2CF2D392
:1047400010BD10B5406D0C23026C526802600A68FF
:1047500042600022C0E90532C2610B7903F00F0309
:10476000082B01D0092B01D0826002E04FF4805366
:1047700083600B79C3F301130BB1012B01D0C2602D
:1047800002E04FF40053C3600979C1F3811119B1FC
:10479000012903D0022904D0026105E04FF4C06171
:1047A00001E04FF480610161FCF770FD002801D049
:1047B0004FF0FF3010BD406D0122102912D0112999
:1047C00021D1016C91F9081001F01F039A404909A9
:1047D000890001F1E021C1F880210068C16821F061
:1047E00020010FE0016C91F9081001F01F039A40BD
:1047F0004909890001F1E021C1F800210068C16880
:1048000041F02001C16000207047416D4FF0FF3042
:1048100009680A68D243920601D44868C0B270475A
:10482000406D6FF0400203681A60026851600068D2
:104830000168C9434906FBD401207047426D82B02C
:1048400011680B68DB439B0606D4CB689B0603D537
:10485000012102B0FEF7E2BD0868C043000702D4A0
:104860000868486800900868C043400702D4086898
:10487000486800900868C043800702D40868486808
:1048800000900868C043C00702D1086848680090DB
:104890000868C043C00502D46FF4807008601068D7
:1048A0000168C943890502D46FF400710160106882
:1048B0000168C943090602D46FF0800101601068E5
:1048C0000168C943490602D46FF0400101601068D5
:1048D0000168C943890602D46FF02001016002B06B
:1048E0007047000010B518A0FEF780FE1A4C218812
:1048F0001AA0FEF77BFE2088C00702D01DA0FEF79D
:1049000075FE2088800702D51DA0FEF76FFE208867
:10491000400702D51DA0FEF769FE2088000702D5DA
:104920001CA0FEF763FE2088C00502D51BA0FEF781
:104930005DFE2088800502D51BA0FEF757FEBDE86E
:10494000104004A0FEF752BE757361676520666172
:10495000756C743A0A0000002AED00E05343425F90
:10496000434653525F554653523A307825303258B9
:1049700020000000554E444546494E5354522000F5
:10498000494E56535441544520000000494E56505C
:10499000432000004E4F435020000000554E414C34
:1049A00049474E454420000044495642595A455211
:1049B0004F20000010B5FFF7F7F9002010BD61642B
:1049C000635F6D005F5F636D645F6164635F6D0073
:1049D000000807000800010043470008B747000827
:1049E000214800080B4800080000000000000000FB
:1049F0000102030406070809000000000102030485
:104A000068656C6C6F0076657273696F6E005F5FCE
:104A1000636D645F76657273696F6E006C69737441
:104A20005F746872656164005F5F636D645F6C6989
:104A300073745F746872656164006C6973745F732A
:104A4000656D005F5F636D645F6C6973745F736550
:104A50006D006C6973745F74696D6572005F5F638C
:104A60006D645F6C6973745F74696D6572006C6905
:104A700073745F646576696365005F5F636D645F2F
:104A80006C6973745F646576696365006C697374DF
:104A9000000000003C4D0008F84C00088C4C000859
:104AA000A04C0008B84C0008884C0008D44C000802
:104AB000C44C0008784D0008E44C0008944D0008F0
:104AC000804D0008AC4C0008884D0008184D0008C7
:104AD000684D0008084D00082C4D0008504D000896
:104AE000704D00085F5F636D645F68656C70005FA8
:104AF0005F636D645F7073005F5F636D645F7469B3
:104B00006D65005F5F636D645F66726565000000E0
:104B10000100020001000300010002000100040086
:104B20000100020001000300010002000100050075
:104B30000100020001000300010002000100040066
:104B40000100020001000300010002000100060054
:104B50000100020001000300010002000100040046
:104B60000100020001000300010002000100050035
:104B70000100020001000300010002000100040026
:104B80000100020001000300010002000100070013
:104B90000100020001000300010002000100040006
:104BA00001000200010003000100020001000500F5
:104BB00001000200010003000100020001000400E6
:104BC00001000200010003000100020001000600D4
:104BD00001000200010003000100020001000400C6
:104BE00001000200010003000100020001000500B5
:104BF00001000200010003000100020001000400A6
:104C00000100020001000300010002000100303138
:104C10003233343536373839616263646566003063
:104C20003132333435363738394142434445460012
:104C30006C6973745F6D656D00000000756172745E
:104C400031000000252D2A2E7320707269202073F8
:104C50007461747573202020202020737020202020
:104C60002020737461636B2073697A65206D6178AD
:104C70002075736564206C656674207469636B20AD
:104C8000206572726F720A00525443004E65747749
:104C90006F726B20496E7465726661636500000017
:104CA0004D544420446576696365000053504920A3
:104CB000446576696365000043414E20446576692A
:104CC00063650000477261706869632044657669B6
:104CD00063650000536F756E642044657669636593
:104CE0000000000055534220536C617665204465F6
:104CF0007669636500000000426C6F636B20446559
:104D00007669636500000000506F7274616C204426
:104D10006576696365000000504D205073657564C9
:104D20006F204465766963650000000054696D6515
:104D30007220446576696365000000004368617213
:104D400061637465722044657669636500000000E4
:104D50004D697363656C6C616E656F757320446536
:104D6000766963650000000050697065000000000E
:104D7000556E6B6E6F776E0049324320427573003B
:104D800053504920427573005344494F2042757374
:104D90000000000055534220486F73742042757321
:104DA00000000000ED460008E5460008E146000866
:104DB00099230008E9460008BE490008F9200008C8
:104DC000C4490008F9200008004A000881270008AB
:104DD000064A0008B54900080E4A0008B54900080F
:104DE0001C4A000887280008284A0008872800086D
:104DF0003A4A000875280008434A00087528000848
:104E0000524A0008992800085D4A000899280008BD
:104E10006E4A0008F52700087A4A0008F5270008BE
:104E20008C4A0008A1270008E44A0008C52A0008A7
:104E3000EF4A000857220008F84A000861220008DB
:104E4000034B00084D220008304C000809280008D8
:104E5000704E000800000020CC0000006C19000813
:104E60003C4F0008CC0000200C2100007C190008F9
:104E70003C4C000800380140250000000000000004
:104E800001000000100000000000000000A24A0421
:104E90000000000000000000000000000000000012
:104EA0000000000000000000000000000000000002
:104EB00000000000000000000000000000000000F2
:104EC0000000000000000000000000005C00002066
:104ED0005C000020A8000000010000006C00002021
:104EE0006C00002038000000080000007C0000205A
:104EF0007C00002058000000090000008C00002009
:104F00008C000020440000000000000000000000B1
:104F10000000000000000000000000000000000091
:104F20000000000000000000000000000000000081
:0C4F300000000000000000000000000075
:04000005080000ED02
:00000001FF
